:020000040000FA
:1000000058050020D9000000F3000000010F000097
:1000100000000000000000000000000000000000E0
:10002000000000000000000000000000F7000000D9
:100030000000000000000000F9000000770F000041
:10004000310F0000390F0000410F0000490F000080
:10005000FD000000FD000000071500000F15000066
:10006000FD000000FD000000510F0000FD00000039
:10007000110F0000FD000000091300001113000023
:1000800019130000FD0000002913000031130000C7
:1000900039130000210F000063160000FD0000006E
:1000A00089010000FD000000531600005B160000EF
:1000B000190F0000FD000000310E0000B10D00001E
:1000C0000448854600F04EF80048004761180000DB
:1000D000C046C0465805002009480A4A002100A130
:1000E000814200D902440848026008488047084815
:1000F0000047FEE7FEE7FEE7FEE7FEE7FEE700005B
:10010000000000200000000008ED00E0FD120000EB
:10011000C100000030B50B4601460020202201241A
:1001200009E00D46D5409D4205D31D469540491B2B
:100130002546954040191546521E002DF1DC30BD74
:1001400003460B439B0703D009E008C9121F08C0F0
:10015000042AFAD203E00B780370401C491C521E9B
:10016000F9D27047064C0125064E05E0E36807CC3E
:100170002B430C3C98471034B442F7D3FFF7A4FF4D
:1001800094180000B418000010B5C046C04610BD59
:1001900030B50346002A01D1042030BD002902D029
:1001A00001297DD165E0986D400840001478E4078E
:1001B000E40F20439865986D0224A04354796400AD
:1001C00002252C4020439865986D0424A04394791F
:1001D000A40004252C4020439865986D0824A04372
:1001E0001479E40008252C4020439865986D30244C
:1001F000A043D478240130252C4020439865986D85
:10020000C024A0439478A401C0252C4020439865C5
:10021000986DFF240134A04354782402FF25013552
:100220002C4020439865986D03246402A043147AFF
:10023000640203256D022C4020439865986DAC0044
:10024000A043D479E402AD002C4020439865986E19
:1002500040084000547AE407E40F20439866986E03
:100260000624A043947A640006252C402043986617
:100270006FE0986D01242404A04314782404012520
:100280002D042C4020439865986D6C00A043547950
:1002900064046D002C4020439865986D6C0000E06C
:1002A00055E0A0439479A4046D002C402043986548
:1002B000986D6C00A0431479E4046D002C40204339
:1002C0009865986D03242405A043D478240503255C
:1002D0002D052C4020439865986DAC00A043947880
:1002E000A405AD002C4020439865986D0124240698
:1002F000A0435478240601252D062C402043986500
:10030000986D03246406A043147A640603256D06E1
:100310002C4020439865986DAC00A043D479E40646
:10032000AD002C4020439865986E1024A043547A69
:10033000240110252C4020439866986E6024A04329
:10034000947A640160252C402043986601E00420E3
:1003500023E700BF002020E710B50246102901DB8B
:10036000042010BD80208358012088401843802439
:10037000A050906D40084000401C90650020F0E7C0
:1003800010B50246102901DB042010BD84208358DB
:100390000120884018438424A050906D0124240437
:1003A000A043001990650020EFE730B503461446DE
:1003B0005A6D002C03D001208840024304E0012044
:1003C0008840154685432A465A65002030BD0146BF
:1003D0000022FF20053042500020704702460120D5
:1003E0008840C343FF2005308350002070470146FA
:1003F000CA6F0120C0071043C8670020704703463A
:10040000002902D11869108006E0012902D158693B
:10041000108001E0042070470020FCE710B5024680
:10042000FF240134A3581C46CC40E007C00F10BD88
:1004300010B50246002901D1042010BD0878052816
:1004400001DD0420F9E7106D0E2398430B785B0063
:100450000E24234018431065106DFF230133984389
:100460004B781B02FF240134234018431065106DA4
:10047000702398438B781B01702423401843106528
:100480000020DAE702465160002070470146086DFF
:1004900040084000401C08650020704701460022CB
:1004A000002009E0002802D14B1D1A5C02E04B1D20
:1004B0001B5C5A40431C98B20B788342F2DC0878EC
:1004C00050404B7858408B785840CB7858400B7947
:1004D0005840FF23053358541846405C704770B5A8
:1004E00004460E46AA21304601F07AF9F221304640
:1004F00001F076F92178304601F072F961783046E2
:1005000001F06EF9A178304601F06AF9E1783046E1
:1005100001F066F92179304601F062F9002506E024
:10052000601D415D304601F05BF9681C85B22078A2
:10053000A842F5DC2046FFF7B1FF054629463046C4
:1005400001F04EF970BDF8B507460C469BE0384601
:1005500001F038F90546FF200630005D030001F088
:10056000C3F809061626303A444E627F9100AA2D40
:1005700004D00021FF200630015507E0FF2006309F
:10058000005D401CC1B2FF20063001557AE0F22D1B
:1005900004D00021FF200630015507E0FF2006307F
:1005A000005D401CC1B2FF20063001556AE0257095
:1005B000FF200630005D401CC1B2FF20063001550F
:1005C00060E06570FF200630005D401CC1B2FF2076
:1005D0000630015556E0A570FF200630005D401C36
:1005E000C1B2FF20063001554CE0E570FF20063017
:1005F000005D401CC1B2FF200630015542E025716C
:10060000FF200630005D401CC1B2FF2006300155BE
:100610000021C01C01532078002803D10821FF20AD
:10062000063001552EE0FF200930005B217888421A
:100630000BD0FF200930005BFF210931095B491C09
:10064000FF2209321153611D0D54FF200930005B58
:100650002178884203D10821FF200630015511E09E
:100660000021FF20063001552E462046FFF716FFD9
:100670003546A84203D1204600F035F802E0204676
:1006800000F02AF800BF384601F087F8002800D0B3
:100690005DE7F8BD10B5FF2208320649064801F0B3
:1006A0008BF8FF2208320549054801F085F800F073
:1006B0005FF810BD16010020240300201D02002059
:1006C0003403002010B502490248FFF73CFF10BD7B
:1006D0000C00002024030020FF210731095C0029C1
:1006E00000D000BF704710B50446FF200730005D02
:1006F00000280AD1207900090F2815D12079010797
:10070000090F204600F0ECFE0EE0FF200730005DF0
:10071000012809D1207900090F2805D12079010786
:10072000090F204600F0DCFE10BD0000F8B50646BB
:100730000C46154621463046FFF7D1FEFF20073014
:10074000405D00280FD1002707E0204601F03AF86D
:1007500007463946054800F038FF204601F01DF8ED
:100760000028F2D100E000BFF8BD00000001004009
:1007700000210148817170470C0100201CB5052142
:10078000684601F039F801211C2000F043FD0120EA
:10079000694608706A460321802000F06FFB03223F
:1007A0001146802000F0A2FB6A460421802000F060
:1007B00065FB01220421802000F098FB1CBD000095
:1007C00000B587B0032106A801F016F80B2103A895
:1007D00001F012F80B21684601F00EF801210A2001
:1007E00000F018FD002168460176012141760421C0
:1007F000817606A91A48FFF71BFE1A491848FFF729
:1008000041FE01216846017303AA00211448FFF745
:10081000BFFC0121684601706A461148FFF7B8FC29
:1008200005210F48FFF798FD07210D48FFF7A8FDA8
:100830000B48FFF7DCFD0A48FFF7C9FD0122002144
:100840000748FFF7B2FD012211460548FFF7ADFD4D
:1008500001220221122000F0B3FA07B000BD00000F
:10086000003000405FEA00007CB50124174D2E46A1
:100870000121082000F0CEFC002168460170417083
:10088000042181700021C17001710121417169460B
:10089000002000F07BF9002800D000BF002000F00D
:1008A000D5F8002000F026F9012203210E2000F0E7
:1008B00087FA2946002000F09BF83146002000F01E
:1008C000EBF8002000F04AFA20467CBDF0D800008A
:1008D00008B5002000F0B2FA022000F0A7FC0021C9
:1008E000684601704170817000F049FB08BD00004E
:1008F00010B586B000240C2103A800F07DFF06216E
:1009000001A800F079FF0121082000F083FC0121FB
:10091000084600F07FFC0021684641734B2000022E
:10092000059001216846017300F03CFC049003A986
:10093000164800F060FE044601216846417200211D
:10094000017201A9012000F021F92146012000F0E7
:100950004FF82146012000F09FF8012000F0FEF939
:10096000012100916946094800F019FE002107485D
:1009700000F0FFFD0021054800F0E6FD01221146D0
:10098000072000F01DFA06B010BD00000001004075
:100990001CB50521684600F02FFF01211C2000F046
:1009A00039FC0021684601706A460521C02000F02C
:1009B00065FA01220521C02000F098FA012168465D
:1009C00001706A460621C02000F058FA0122062173
:1009D000C02000F08BFA1CBD10B501210F2000F0E3
:1009E00019FC0B21002000F049FE00F05DFE10BD57
:1009F00010B502460020002A04D0012A0BD0022A9A
:100A00001DD111E0104B1B681B0C1B048CB223433F
:100A10000D4C236015E00C4B1B6A1B0C1B048CB2A5
:100A20002343094C23620CE0074B40331B681B0C2B
:100A30001B048CB22343044C4034236001E00120AA
:100A400000BF00BF10BD0000000C004001460020A8
:100A5000002904D0012909D0022917D10DE00D4A3F
:100A60005269520852000B4B5A6111E0094A526B0D
:100A700052085200074B5A630AE0064A4032526954
:100A800052085200034B40335A6101E0012000BF7D
:100A900000BF7047000C004010B502460020002A3D
:100AA00004D0012A0BD0022A1DD111E0104B5B6843
:100AB0001B0C1B048CB223430D4C636015E00C4BE4
:100AC0005B6A1B0C1B048CB22343094C63620CE071
:100AD000074B40335B681B0C1B048CB22343044C54
:100AE0004034636001E0012000BF00BF10BD000082
:100AF000000C004001460020002904D001290BD041
:100B000002291DD111E0104AD26801239B029A43A9
:100B1000D2180D4BDA6015E00B4AD26A01239B0212
:100B20009A43D218084BDA620CE0074A4032D26886
:100B300001239B029A43D218034B4033DA6001E051
:100B4000012000BF00BF7047000C0040014600209C
:100B5000002904D0012907D0022910D109E00A4A4E
:100B60001269D007C00F0CE0074A126BD007C00F04
:100B700007E0054A40321269D007C00F01E00020AB
:100B800000BF00BF70470000000C004030B50246B7
:100B90000020002A04D0012A47D0022A7ED18BE00F
:100BA0006D4BDB6801246402A3430C7864020125C9
:100BB0006D022C402343684CE3602346DB68A41598
:100BC000A3434C7824026D102C402343624CE36015
:100BD0002346DB687024A3438C78240170252C40C5
:100BE00023435D4CE3602346DB680824A343CC78B1
:100BF000E40008252C402343574CE3602346DB6880
:100C00000424A3430C79A40004252C402343524C14
:100C1000E3602346DB680224A3434C796400022589
:100C20002C4023434C4CE36094E04B4BDB6A0124A3
:100C30006402A3430C78640201256D022C40234317
:100C4000454CE3622346DB6AA415A3434C78240297
:100C50006D102C402343404CE3622346DB6A702432
:100C6000A3438C78240170252C4023433A4CE36243
:100C70002346DB6A0824A343CC78E40008252C40F3
:100C80002343354CE3622346DB6A0424A3430C79F7
:100C9000A40004252C4023432F4C00E058E0E362DD
:100CA0002346DB6A0224A3434C79640002252C40CE
:100CB0002343294CE3624DE0274B4033DB6801249A
:100CC0006402A3430C78640201256D022C40234387
:100CD000214C4034E3602346DB68A415A3434C78E1
:100CE00024026D102C4023431B4C4034E360234608
:100CF000DB687024A3438C78240170252C402343A7
:100D0000154C4034E3602346DB680824A343CC78C9
:100D1000E40008252C4023430F4C4034E360234675
:100D2000DB680424A3430C79A40004252C4023434E
:100D3000094C4034E3602346DB680224A3434C792A
:100D4000640002252C402343034C4034E36001E05F
:100D5000012000BF00BF30BD000C00400146002054
:100D6000002904D001290AD002291AD10FE00F4A24
:100D7000D26852085200521C0C4BDA6013E00B4A46
:100D8000D26A52085200521C084BDA620BE0074A42
:100D90004032D26852085200521C044B4033DA6091
:100DA00001E0012000BF00BF70470000000C0040C0
:100DB00010B5C046C04610BD10B5C046C04610BDF7
:100DC00070B504460E4615462046002805DBC206CF
:100DD000D20E01219140144A116000BF31462046D5
:100DE00000F090FC012D0ED12046002809DB00BF49
:100DF00000BFC206D20E012191400C4A116000BF13
:100E000000BF00BF0FE0204600280ADBC206D20E5A
:100E100001219140054A80321160BFF34F8FBFF32B
:100E20006F8F00BF00BF70BD80E200E000E100E016
:100E300010B5C046C046C046C04610BD10B50146FC
:100E40000020084A084BDA62084ADA621A46126A37
:100E500004239A438B00042423401A43024B1A6252
:100E600010BD00005A5A000000000240A5A5000075
:100E700002461068C840C007C00F704770B50446EE
:100E80000E461546174960180022314600F064F8F6
:100E9000002015496118B20088502A7811490C3990
:100EA0006018314600F058F86A780E491031601821
:100EB000314600F051F8AA780A49143160183146D9
:100EC00000F04AF8EA78074918316018314600F016
:100ED00043F82A79034920316018314600F03CF884
:100EE000002070BD0C0D0240000C024010B50346FE
:100EF000024818188C000251002010BD000C02405E
:100F000008B50020009000BF00980028FCD008BD64
:100F100010B5C046C04610BD10B5C046C04610BD95
:100F200010B5C046C04610BD10B5C046C04610BD85
:100F300010B5C046C04610BD10B5C046C04610BD75
:100F400010B5C046C04610BD10B5C046C04610BD65
:100F500010B5C046C04610BD10B5012A05D10368C2
:100F600001248C402343036004E0036801248C4087
:100F7000A343036010BD10B5C046C04610BD70B598
:100F8000044600252078002804D0012803D0022838
:100F90000CD107E00CE0032000F094F9032000F0EE
:100FA0006BF905E0032000F055F901E0042500BFCE
:100FB00000BF2078012100F00BF8207800F06CF9D8
:100FC000607800F0FFF8A07800F010F9284670BDB6
:100FD000F8B505460C46002700F07AFB002C01D03E
:100FE000012000E0002004462C48066A002D04D0B1
:100FF000012D15D0022D49D134E028480068400861
:101000004000E107C90F08432449086000BF002CD5
:1010100005D02248C0680005C00F0028F7D037E08F
:101020001E48006A01210907884340181B490862CD
:101030001B48C068062108431949C8601748006862
:1010400002218843610002221140084313490860CD
:1010500000BF002C05D0114800694006C00F0028D1
:10106000F7D015E00D48006804218843A100042250
:10107000114008430949086000BF002C05D007480B
:101080004069C004C00F0028F7D001E0042700BF6A
:1010900000BF024806623846F8BD0000002000404C
:1010A000000D024030B589B000241422394904A84B
:1010B000FFF746F83748143000680390002000908E
:1010C0000190029034480188684601813248418885
:1010D0006846C18030488188684681802E48C18832
:1010E000684641802C4820300188684601802B48A2
:1010F00000688006850F002D04D0012D2CD0022D14
:101100003AD12BE02548C0684005400D6946098961
:10111000884201D1089C1EE02048C0684005400D6F
:101120006946C988884201D1079C14E01B48C06801
:101130004005400D69468988884201D1069C0AE035
:101140001648C0684005400D69464988884201D16B
:10115000059C00E0049C11E0114C0FE068460088FB
:101160000E4949698905890D884202D16846C489BA
:1011700001E06846848901E0002400BF00BF074801
:101180000068C005410F2046C8400446204609B00B
:1011900030BD00007C180000000C10000020004052
:1011A0000048E80110B50024FFF77CFF044604481E
:1011B00000684005810F2046C8400446204610BD07
:1011C0000020004010B5044600F082FA064800688E
:1011D000FF21C1318843A101FF22C13211400843E0
:1011E00001490860002010BD0020004010B50446F1
:1011F00000F06EFA06480068032149028843610244
:10120000032252021140084301490860002010BD2A
:101210000020004070B504460D462A46214602488B
:10122000FFF79AFE002070BD2020004001464A00D2
:10123000064BD21812885005400D054AD268D20AD2
:10124000D2020243024BDA6000207047000C10000B
:101250000020004010B501460020064A52690323D1
:101260009B029A438B020324A40223401A43014B9E
:101270005A6110BD0020004010B501460020054A0B
:10128000126930239A430B01302423401A43014B47
:101290001A6110BD0020004070B5044600252646A6
:1012A00000F016FA064800683021884331013022E8
:1012B000114008430249086000F012F8284670BD4A
:1012C0000020004001460020044A12699208920062
:1012D0008B079B0F1A43014B1A6170470020004097
:1012E00010B5FFF7DFFE03490860FFF75BFF024917
:1012F000086010BD000000200400002010B5FFF7BA
:10130000E7FAFFF7EDFF10BD10B500F019F810BDBA
:1013100010B5C046C04610BD10B5C046C04610BD91
:1013200010B5C046C04610BD10B500F01BF810BD8A
:1013300010B5C046C04610BD10B5C046C04610BD71
:1013400010B50020FFF702FC012807D10020FFF7AD
:101350007DFB034800680A300149086010BD0000A9
:101360000800002010B500215A48FFF757F801285F
:1013700054D100215748FFF731F85748007800282A
:1013800024D1554A121D00215248FFF738F8042194
:101390005048FEF7E1FF01204F4908700846808859
:1013A0004988884207DD4C4880884B494988401A63
:1013B0004949C88032E0484840880021C943081A9A
:1013C0004549898840184449C88027E04248007848
:1013D000012823D1404A921C00213E48FFF70FF814
:1013E00005213C48FEF7B8FF00203B49087008463D
:1013F00040888988884207DD37484088364989888F
:10140000401A3549088109E0334880880021C943E2
:10141000081A3149498840182F49088101212D486F
:10142000FEF7FCFF012854D101212A48FEF7D6FF20
:101430002A480078002824D1284A121D0121254875
:10144000FEF7DDFF06212348FEF79AFF012023491E
:101450000870084680884988884207DD1F488088D0
:101460001E494988401A1D49C88032E01B484088FF
:101470000021C943081A1949898840181749C880AA
:1014800027E016480078012823D1144A921C012134
:101490001048FEF7B4FF07210E48FEF771FF002049
:1014A0000E490870084640888988884207DD0B4845
:1014B00040880A498988401A0849088109E0074894
:1014C00080880021C943081A044949884018034903
:1014D000088110BD00300040440300204E0300206E
:1014E00070B505460C46012C02D0022C08D103E051
:1014F000284600F091F904E0284600F08FF900E05A
:1015000000BF00BF70BD10B5C046C04610BD10B5CD
:1015100000F002F810BD000010B50021084800F0EE
:1015200032F801280BD1064800F04BF8044621465A
:10153000044800F055F90021014800F005F810BDFD
:10154000000100402403002070B504460D4600222F
:10155000294620461430FFF7FFFC002070BD70B50F
:1015600004460D4601222946201DFFF7F5FC002008
:1015700070BD70B504460D4601222946201DFFF7B7
:10158000EBFC002070BD70B504460D4600262946D0
:1015900020461030FFF76CFC0646304670BD70B533
:1015A00004460D466068C021884329788901C0221D
:1015B00011400843606004212046FFF7D0FF00205F
:1015C00070BD01460868C0B2704770B504460D464C
:1015D0002068000A0002E9B20843206000BF012130
:1015E0002046FFF7D0FF0028F9D001212046FFF761
:1015F000ABFF002070BD70B505460C46002668683C
:1016000001214902884361784902012252021140B6
:10161000084368602078002806D0012806D00228F8
:1016200003D0032811D102E000BF0FE000BF6378B0
:101630005B1C62685A431046A2685101FEF76AFDBE
:1016400001210904081A86B200E000BF00BF30463D
:1016500070BD10B5C046C04610BD10B5C046C046EE
:1016600010BD10B5C046C04610BD00001E20024986
:101670000860E12008607047800C004030B50346E8
:101680000C460125204600F017F806484068202146
:10169000884359012022114008430249486000252F
:1016A000284630BD800C00401E2002490860E12021
:1016B00008607047800C0040044949680909090125
:1016C0000207120F1143014A51607047800C00401D
:1016D0000248034988600348886070475A5A0000EE
:1016E00000200040A5A5000030B47446641E257893
:1016F000641CAB4204D3635D5B00E31830BC184745
:101700001D46F8E710B5002819DB1A4A03231B020F
:10171000D21883089B00D2588307DC0EFF23A34016
:101720009A438B071B0E8407E40EA3401A43114B08
:10173000032424021B198408A4001A5118E00E4A3D
:1017400003071B0F083B9B089B00D2588307DC0E46
:10175000FF23A3409A438B071B0E8407E40EA3408C
:101760001A43054B0407240F083CA408A4001A518F
:1017700010BD000000E100E01CED00E002E008C840
:10178000121F08C1002AFAD170477047002001E0FB
:1017900001C1121F002AFBD1704701460022888830
:1017A0000B89C01A02B28B684868984202DA08882E
:1017B000801802B290B270470280002383604360B9
:1017C000C1607047014600208B685A1C8A60CA6855
:1017D000D05C0B888A689A4201DB00228A607047DD
:1017E00043685A1C4260C268D154038842689A42D6
:1017F00001DB00224260704710B50A46014600290D
:1018000000D110BD02E000230B70491C1346521E8C
:10181000002BF8D100BFF4E77047000010B5044674
:10182000024A03492046FEF781FF10BD0C0000204C
:101830003403002010B5FFF717F8FEF79FFFFEF7FF
:10184000BFFF0348FEF722FEFFF7C6F810BD0000F9
:101850000030004010B5FFF79BF8FFF749F810BDC6
:10186000FFF74CFDFEF716FFFFF7F4FFFFF7E2FF6F
:1018700003E0FFF7FBFEFEF725FFFAE700093D0056
:1018800000127A000024F4004086510100366E01F7
:1018900000800096B4180000000000200C0000003A
:1018A0007C170000C01800000C0000204C05000050
:1018B0008C17000000093D0000000000000000003F
:04000005000000C136
:00000001FF
