:100000000801002035190000AB1500008B0D000021
:1000100000000000000000000000000000000000E0
:10002000000000000000000000000000C3170000F6
:100030000000000000000000EB190000990D000016
:10004000A10D0000A90D0000B10D0000B90D0000C8
:10005000F7190000F7190000C10D0000C90D0000DC
:10006000F7190000F7190000D10D0000F719000082
:10007000D90D0000F7190000E10D0000E90D0000A6
:10008000F10D0000F7190000F90D0000010E00004D
:10009000090E0000110E0000190E0000F7190000F3
:1000A000210E0000F7190000290E0000310E00009B
:1000B000390E0000F7190000410E00004D0E00003F
:1000C00000B501000020C9B2002903D002290DD0DB
:1000D00006D311E09C4801680800C007C00F0CE07F
:1000E000AB4801680800C007C00F06E0A9480168D6
:1000F0000800C007C00F00E00020C0B200BD00B57E
:1001000001000020C9B2002903D002290FD007D373
:1001100014E0A1490968012291439F4A11600EE051
:100120009E490968012291439C4A116007E09C495D
:100130000968012291439A4A116000E00120C0B28F
:1001400000BD00B501000020C9B2002903D002297A
:1001500011D008D317E0934909688022D2000A43DE
:1001600090490A6010E0904909688022D2000A4351
:100170008D490A6008E0A14909688022D2000A433B
:100180009E490A6000E00120C0B200BD10B5020027
:100190000020D2B2002A04D0022A00D18BE045D33D
:1001A000CEE00A787F4B1B68A94C1C40520280238A
:1001B0009B001A4022437B4B1A604A78794B1B689C
:1001C000A44C1C40120280235B001A402243754B52
:1001D0001A608A78734B1B687024A3431201702441
:1001E00014401C436F4A1460CA786E4B1B68082485
:1001F000A343D200082422401A436A4B1A600A79AA
:10020000684B1B680424A3439200042422401A4331
:10021000644B1A604979634A126802239A43490081
:100220000223194011435F4A11608AE00A785E4B4D
:100230001B68874C1C40520280239B001A402243BB
:10024000594B1A604A78584B1B68824C1C4012026A
:1002500080235B001A402243534B1A608A78524B2A
:100260001B687024A3431201702414401C434E4A9F
:100270001460CA784C4B1B680824A343D20008249E
:1002800022401A43484B1A600A79474B1B680424E2
:10029000A3439200042422401A43434B1A60497935
:1002A000414A126802239A4349000223194011432C
:1002B0003D4A116045E00A78504B1B68644C1C4075
:1002C000520280239B001A4022434C4B1A604A780A
:1002D0004A4B1B685F4C1C40120280235B001A4093
:1002E0002243464B1A608A78444B1B687024A34310
:1002F0001201702414401C43404A1460CA783F4BDA
:100300001B680824A343D200082422401A433B4B15
:100310001A600A79394B1B680424A3439200042411
:1003200022401A43354B1A604979344A1268022335
:100330009A434900022319401143304A116000E0FA
:100340000120C0B210BD0000100C004000B501003B
:100350000020C9B2002903D002290FD007D314E02E
:100360001049096801220A430E490A600EE00E494D
:10037000096801220A430C490A6007E01F4909681D
:1003800001220A431D490A6000E00120C0B200BDFD
:10039000300C0040500C0040140C0040340C004065
:1003A000540C00400C0C00402C0C004000B5020026
:1003B0000020D2B2002A03D0022A13D009D31AE0B7
:1003C000254A1268120C120489B20A4322490A60B3
:1003D00012E0224A1268120C120489B20A431F4921
:1003E0000A6009E01E4A1268120C120489B20A431C
:1003F0001B490A6000E00120C0B200BD4C0C004067
:1004000000B502000020D2B2002A03D0022A13D085
:1004100009D31AE0134A1268120C120489B20A4373
:1004200010490A6012E0104A1268120C120489B2D4
:100430000A430D490A6009E00C4A1268120C1204C2
:1004400089B20A4309490A6000E00120C0B200BD38
:10045000FFFDFFFFFFFEFFFF000C0040200C0040EF
:10046000400C0040040C0040240C0040440C0040B0
:10047000984899490860994897490860704770B54D
:1004800005000C000026FFF7F3FFE4B2002C01D0BA
:10049000012400E00024B0480068EDB2002D03D034
:1004A000022D3AD016D34EE08D49096801229143BE
:1004B000E4B22200D207D20F0A4389490A60E4B2AB
:1004C000002C06D0874909680A001205D20F002ABD
:1004D000F5D039E0A0490968802252050A439E49B7
:1004E0000A609E49096806220A439C490A607C49C1
:1004F000096802229143E4B2620002231A400A43CF
:1005000077490A60E4B2002C06D0954909680A00D0
:100510005206D20F002AF5D016E07149096804226C
:100520009143E4B2A20004231A400A436C490A60D2
:10053000E4B2002C06D08B4909680A00D204D20F1D
:10054000002AF5D000E00426834908603000C0B2DC
:1005500070BD01000020824A126803239A43C9B289
:100560008907890F11437E4A1160C0B270470100AC
:1005700000207B4A126830239A43C9B20901302314
:100580000B40134376490B60C0B270470100002056
:10059000744A12688B4B1340C9B28902C0221201FF
:1005A0000A401A436F490A60C0B2704738B5050067
:1005B0000024FFF75DFF4A48006830218843EDB210
:1005C000290130220A4002434548026000F016F932
:1005D0002000C0B232BD00B589B0002004A87A491D
:1005E000142200F033F903A878490A6802606846CB
:1005F0000C2100F05DF9764800886946088175484D
:1006000000886946C88074480088694688807348B5
:1006100000886946488072480088694608803048EA
:10062000006800098007800FC0B2002803D00228AC
:100630002DD02AD339E02B4800684005400D69468B
:100640000989884201D108981EE0264800684005C3
:10065000400D6946C988884201D1079814E02148B5
:1006600000684005400D69468988884201D1069896
:100670000AE01C4800684005400D694649888842E8
:1006800001D1059800E0049810E056480EE0684655
:100690000088344909688905890D884202D103A878
:1006A000408801E06846808900E000200C49096824
:1006B00089094907490FC84009B000BD80B500202D
:1006C000FFF789FF06490968490A8907890FC84069
:1006D00002BD00005A5A000008200040A5A50000F5
:1006E000002000400C20004038B504000025207890
:1006F000002803D0022809D001D30BE00BE003202F
:10070000FFF727FF0320FFF732FF04E00320FFF786
:100710003DFF00E0042501212078FFF7B0FE20789E
:10072000FFF744FF607800F01FF8A07800F02EF883
:100730002800C0B232BD2649C0B202225043085A36
:1007400029490968C90AC9024005400D08432649DC
:100750000860002070470000202000400C0D02407F
:10076000102000401420004010B50400FFF780FE68
:100770001E4800681E490140E4B2A001E022520078
:1007800002400A4319480260002010BD10B5040061
:10079000FFF76EFE1548006816490140E4B260029A
:1007A000C022D20002400A4310480260002010BD5F
:1007B00080B50A00D2B2C0B201000F4800F086F83E
:1007C000002002BDFFF3FFFF0C1A00002C1A0000EE
:1007D000000C1000020C1000040C1000060C10009D
:1007E000200C10000048E8010C20004000200040D0
:1007F0003FFEFFFFFFF9FFFF2020004080B5FFF71D
:10080000EAFE03490860FFF759FF0249086001BD8D
:10081000000000206004002080B5002000F06CF88B
:100820000220FFF788FF0020694608700020694613
:1008300048700020694688706846FFF755FF01BD83
:1008400080B5FFF7E9FFFFF7D9FF01BD70B4103A9B
:1008500003D378C9103A78C0FBD2530701D318C923
:1008600018C001D508C908C0D20704D30B8803807B
:10087000891C801C002A01D50B78037070BC70475E
:10088000130030B414001500103902D310393CC0E5
:10089000FCD2490700D30CC000D504C0890002D3A4
:1008A0000280801C002900D5027030BC7047000017
:1008B0000022E5E700B5002803D106E0002202701F
:1008C000401C0A00511E002AF8D100BD00B5D2B26A
:1008D000012A05D1026801238B401343036004E021
:1008E000026801238B409A43026000BD0268CA403F
:1008F0001000C007C00F7047010000200A4A0B4BD0
:100900001A600B4A094B1A60064A126804239A437C
:10091000C9B28900042319401143024A1160C0B2D0
:1009200070470000200002405A5A00002C0002408C
:10093000A5A500007CB50124C44EC44D01210820AA
:10094000FFF736FF002069460870002069464870AE
:1009500004206946887000206946C87000206946F6
:10096000087101206946487169460020FFF70EFCB6
:10097000002800D001240020FFF7C1FB0020FFF772
:10098000E0FB012203210E2000F0E4F9310089B2DE
:100990000020FFF70BFD290089B20020FFF730FD92
:1009A0000020FFF7D3FC2000C0B276BD00B583B0B5
:1009B00005216846FFF77EFF01211C20FFF7F8FEA6
:1009C0000120694608706A460321802000F042FA3F
:1009D00003220321802000F07BFA6A460421802054
:1009E00000F038FA01220421802000F071FA07BDDE
:1009F00000B587B003216846FFF75CFF0B2104A810
:100A0000FFF758FF0B2101A8FFF754FF01210A202F
:100A1000FFF7CEFE00206946087001206946487045
:100A20000420694688706946894800F0B7FB894907
:100A3000874800F0E3FB01206946087404AA0021FE
:100A4000834800F0B2FA01206946087101AA012129
:100A50007F4800F0AAFA05217D4800F07FFA0721BF
:100A60007B4800F08EFA7A4800F071FA784800F07E
:100A700068FA01220021764800F042FA01220121A1
:100A8000734800F03DFA01220221122000F062F9C1
:100A900007B000BD80B501210F20FFF789FE0B21B3
:100AA000002000F0CCFB00F0DFFB01BD80B5FFF7BC
:100AB00041FFFFF77BFFFFF79BFF654800F098FBC6
:100AC000FFF7E8FF01BD80B50020FFF7F9FA012824
:100AD00007D10020FFF713FB5F4800680A305E492A
:100AE000086001BD80B50021594800F019FA0128BD
:100AF00052D10021564800F01CFA584800780028CE
:100B000023D1574A0021524800F07EFB042150486F
:100B100000F024FA012051490870504840884F499C
:100B20008988884207D24D4880884C494988401AB4
:100B30004A49C88030E04B4848494988401A4749EB
:100B4000898840184549C88026E044480078012833
:100B500022D1454A00213E4800F056FB05213C4881
:100B600000F0FCF900203D4908703C4880883B4972
:100B70004988884207D23948408838498988401ACC
:100B80003649088108E0374834498988401A334992
:100B9000498840183149088101212D4800F0C0F9E9
:100BA000012852D101212A4800F0C3F92F480078CA
:100BB000002823D12E4A0121254800F025FB0621DB
:100BC000234800F0DEF901202849087027484088B2
:100BD00026498988884207D2244880882349498841
:100BE000401A2249C88030E01E4820494988401AEE
:100BF0001E49898840181D49C88026E01B48007896
:100C0000012822D11B4A0121114800F0FDFA0721D9
:100C10000F4800F0B6F90020144908701348808886
:100C200012494988884207D2104840880F4989886C
:100C3000401A0E49088108E00A480C498988401A80
:100C40000A49498840180949088101BDF0D80000C7
:100C5000003000405FEA00005C04002044040020F3
:100C600048040020FFFF000046040020500400203C
:100C7000540400205204002000B540B2002805D4DE
:100C80000121C006C00E81402D48016000BD00B5A5
:100C900040B2002805D40121C006C00E8140294879
:100CA000016000BD00B540B2002805D40121C00696
:100CB000C00E81402448016000BDF0B540B200285C
:100CC0001BD4224A40B2830804246343D258FF2332
:100CD0008407A40F08256C43A3409A438901C9B235
:100CE00083079B0F0824634399401143174A40B27E
:100CF000800804235843115020E0154B40B20207EE
:100D0000120F083A920804246243114C40B20507BE
:100D10002D0F083DAD08042675436459FF2586074D
:100D2000B60F08277E43B540AC438901C9B280079E
:100D3000800F08256843814021439950F0BD000091
:100D400000E100E080E100E080E200E000E400E09B
:100D50001CED00E070B504000E001500200040B24C
:100D6000FFF7A0FFF6B23100200040B2FFF7A5FF69
:100D7000EDB2012D04D1200040B2FFF77DFF03E06A
:100D8000200040B2FFF783FF70BD80B500200090C7
:100D900000980028FCD001BD80B500BF00BF01BD98
:100DA00080B500BF00BF01BD80B500BF00BF01BD61
:100DB00080B500BF00BF01BD80B500BF00BF01BD51
:100DC00080B500BF00BF01BD80B500F0DBFA01BDFA
:100DD00080B500BF00BF01BD80B500BF00BF01BD31
:100DE00080B5FFF770FE01BD80B500BF00BF01BD3B
:100DF00080B500BF00BF01BD80B5FFF773FE01BD28
:100E000080B500BF00BF01BD80B500BF00BF01BD00
:100E100080B500BF00BF01BD80B500BF00BF01BDF0
:100E200080B500BF00BF01BD80B500BF00BF01BDE0
:100E300080B500BF00BF01BD80B500BF00BF01BDD0
:100E400080B500BF00BF00BF00BF01BD80B500BFBF
:100E500000BF01BD70B504000E0015000022F6B2FF
:100E60003100E4B21F482018FFF730FDE4B2F6B2BB
:100E7000B00020181C494018002101602A78F6B201
:100E80003100E4B219482018FFF720FD6A78F6B265
:100E90003100E4B216482018FFF718FDAA78F6B220
:100EA0003100E4B213482018FFF710FDEA78F6B2DB
:100EB0003100E4B210482018FFF708FD2A79F6B295
:100EC0003100E4B20D482018FFF700FD002070BD8E
:100ED000C0B2C9B28900401803494018D2B20260BA
:100EE000002070470C0D0240000C0240000D024033
:100EF0001C0D0240200D0240240D02402C0D02402A
:100F000000B5436DD2B2002A04D01A0001238B40F1
:100F1000134302E001228A4093434365002000BD51
:100F2000802252008258CA401000C007C00FC0B2D1
:100F3000704701228A40D143822252008150002012
:100F40007047002182225200815000207047C16FFB
:100F5000802212060A43C2670020704700B5C9B25A
:100F6000102901DB04200BE08022825801238B40F2
:100F7000134380214350816D01220A438265002082
:100F800000BD00B5C9B2102901DB04200CE08422A9
:100F9000825801238B40134384214350816D80226A
:100FA00052020A438265002000BD10B5002A01D11B
:100FB00004206CE0C9B2002902D0012968D0D4E035
:100FC0001178836D0124A3430C00E407E40F1C4354
:100FD00084655179836D0224A34349000224214092
:100FE000194381659179836D0424A3438900042406
:100FF0002140194381651179836D0824A343C900F9
:101000000824214019438165D178836D3024A3439E
:10101000090130240C401C4384659178836DC02401
:10102000A3438901C0240C401C4384655178836D1F
:10103000524C1C40090280235B001940214381650A
:10104000117A836D4E4C1C404902C023DB000B40DB
:1010500023438365D179836D4A4C1C40C902C02368
:101060005B010B4023438365517A836E0124A343C4
:101070000C00E407E40F1C438466917A826E062319
:101080009A43490006230B4013438366002010BD9A
:101090001178836D364C1C40090480235B02194093
:1010A000214381655179836D374C1C40490480236D
:1010B0009B021940214381659179836D334C1C401B
:1010C00089048023DB021940214381651179836DF6
:1010D0002F4C1C40C90480231B0319402143816508
:1010E000D178836D2B4C1C400905C0239B030B401A
:1010F000234383659178836D274C1C408905C02369
:101100001B040B40234383655178836D194C1C40AD
:10111000090680235B04194021438165117A836DA0
:10112000154C1C404906C023DB040B402343836558
:10113000D179836D2D4C1C40C906C0235B050B4043
:1011400023438365517A836E1024A343090110243D
:10115000214019438166917A826E60239A43490146
:1011600060230B401343836690E704208FE7000061
:10117000FFFFFEFFFFFFFFFEFFFFFFF9FFFEFFFF88
:10118000FFF9FFFFFFE7FFFFFFFFFDFFFFFFFBFF93
:10119000FFFFF7FFFFFFCFFFFFFF3FFF10B5002965
:1011A00001D1042021E00A78062A01DB04201CE09A
:1011B0000A78036D0E24A34352000E2414401C43EE
:1011C00004654A78036D0F4C1C40120280235B00BB
:1011D0001A40224302658978026D70239A430901FF
:1011E00070230B4013430365002010BDFFFFFFE792
:1011F000016D01220A4302650020704789B24160F7
:1012000000207047FFFEFFFF00B5C9B2002903D1DF
:1012100000691080002000BDC9B2012902D14069D7
:101220001080F7E70420F6E7164909680F2291437A
:10123000C0B20007000F084312490860704710B59C
:10124000040001200800C0B2FFF7EEFF0D4800685F
:1012500020218843E4B26101202211400143094862
:1012600001600020C0B210BD1E2007490860E120C7
:101270000549086070471E2003490860E1200249C3
:1012800008607047840C0040800C004000B583B0BB
:1012900005216846FFF70EFB01211C20FFF788FAA5
:1012A0000020694608706A460521C020FFF7D2FD7C
:1012B00001220521C020FFF70BFE012069460870BE
:1012C0006A460621C020FFF7C5FD01220621C02085
:1012D000FFF7FEFD07BD10B586B000240C2103A862
:1012E000FFF7E8FA062101A8FFF7E4FA0121082038
:1012F000FFF75EFA01210120FFF75AFA002003A947
:1013000048709620C0010590012069460873FFF7D8
:10131000D5F9049003A9254800F054F804000120F1
:1013200001A94871002001A9087101A90120FEF757
:101330002DFF210089B20120FFF738F8210089B282
:101340000120FFF75DF80120FFF700F80120694652
:1013500008706946154800F08EF80021134800F027
:1013600029F80021114800F067F801220121072027
:10137000FFF7F0FC06B010BD80B5FFF787FFFFF761
:10138000AAFF01BD80B50021084800F04BF80128F4
:101390000BD1064800F06CF80100C9B2044800F017
:1013A00080F80021014800F047F801BD000100402D
:1013B0002404002080B50122C9B2001DFFF786FA7F
:1013C000002002BD30B5020000204B785468104D5B
:1013D00025405B028024A40023402B4353600A78FD
:1013E000002A05D0022A03D003D3032A01D00CE03F
:1013F0000BE0002448684A78521C50438968202238
:10140000514300F07BF8201AFFE780B230BD0000A6
:10141000FFFDFFFF80B50122C9B2001DFFF756FA9C
:10142000002002BD80B502000020C9B210001030BB
:10143000FFF75CFAC0B202BD80B50022C9B2143019
:10144000FFF744FA002002BD10B504002068FF2217
:101450009043C9B20143216001212000FFF7E2FF60
:101460000028F9D001212000FFF7E6FF002010BD81
:101470000068C0B2704780B509784268C0239A43BB
:101480008901C0230B40134343600421FFF7C2FFCF
:10149000002002BD02800022826000224260C16002
:1014A000704700B5426813005B1C4360C3689954E1
:1014B00041680288914201DB0021416000BD00B516
:1014C000002181680A00521C8260C268515C8268F7
:1014D00003889A4201DB002282600800C0B200BD8E
:1014E00000B5002141688268891A426883689A427F
:1014F00001DA00880918080080B200BD0022030A42
:101500008B420BD203098B4219D243088B422ED255
:10151000411A00D20146524110467047FF2209028B
:101520003FD012068B4205D3121209028B4201D31F
:101530001212090203098B4219D300E0090AC309F8
:101540008B4201D3CB01C01A524183098B4201D394
:101550008B01C01A524143098B4201D34B01C01A7F
:10156000524103098B4201D30B01C01A5241C308F7
:101570008B4201D3CB00C01A524183088B4201D366
:101580008B00C01A524143088B4201D34B00C01A52
:101590005241884200D3401A5241CFD201461046F0
:1015A000704708B500F002F808BDFEE7704710B5B7
:1015B00001000022002305E09BB2C818407950408A
:1015C00002005B1C18000C7880B2A4B2A04206D2C4
:1015D0009BB2002BF0D19BB2C8184279F1E7087892
:1015E00050404A78424088785040CA784240087952
:1015F000504082225200885482204000085C10BD76
:1016000070B506000C00AA212000FFF74AFFF22166
:101610002000FFF746FF31782000FFF742FF717886
:101620002000FFF73EFFB1782000FFF73AFFF17886
:101630002000FFF736FF31792000FFF732FF002549
:1016400006E0ADB2701941792000FFF72AFF6D1C4A
:101650002800317880B289B28842F2D33000FFF797
:10166000A6FF0100C9B22000FFF71BFF70BD70B5D7
:1016700005000E0006E0FF20801D305C401CFF21AD
:10168000891D70542800FFF72BFF002800D197E038
:101690002800FFF714FFFF21891D715C00290CD081
:1016A000022922D011D3042931D027D3062940D0D2
:1016B00036D308296FD050D3E4E7C0B2AA28DAD0D5
:1016C0000020FF21891D7054DCE7C0B2F22804D04D
:1016D0000020FF21891D705406E0FF20801D305C32
:1016E000401CFF21891D7054CCE73070FF20801D05
:1016F000305C401CFF21891D7054C3E77070FF20CF
:10170000801D305C401CFF21891D7054BAE7B07009
:10171000FF20801D305C401CFF21891D7054B1E703
:10172000F070FF20801D305C401CFF21891D70542B
:10173000A8E73071FF20801D305C401CFF21891D0F
:10174000705400208421490070523078002803D161
:101750000820FF21891D705494E784214900715AA3
:10176000327892B291420AD084214900715A0A001B
:10177000521C84235B00F25289B271184871842094
:101780004000305A317889B2884203D10820FF21C5
:10179000891D705476E70021FF22921DB154040088
:1017A0003000FFF704FF01002000C0B2884203D1DF
:1017B000300000F03CF802E0300000F05BF861E738
:1017C00070BDFEE780B5FF22083231493148FFF78E
:1017D00061FEFF22083230493048FFF75BFE00F01F
:1017E00001F801BD00202E490870704738B50C0083
:1017F00015002100FFF704FF83204000285C00282B
:101800000ED100202000FFF76BFE002808D020003A
:10181000FFF755FE0100C9B22248FFF715FEF1E7B8
:1018200031BD80B520491B48FFF721FF01BD80B5C0
:1018300083214900415C00290BD10179C9B2090912
:10184000C9B20F2915D101790907090F00F02EF847
:101850000FE083214900415C01290AD10179C9B215
:101860000909C9B20F2904D101790907090F00F04C
:101870001DF801BD00B583214900405C002800BD72
:10188000704780B5084A0549FFF7B0FF01BD000069
:1018900014020020240400201C0300203404002033
:1018A0000E020020000100400801002080B5C9B2EE
:1018B000012902D0022903D005E0FFF7E1FF02E091
:1018C000FFF7DFFFFFE701BD70B40121002213E045
:1018D0000468001D0C4202D04D466D1E6419226042
:1018E000241D1B1F042BFAD225009E0701D5228040
:1018F000AD1C0B4000D02A700368001D002BE7D1FF
:1019000070BC704730B401210268001D002A0FD05E
:101910000368C318446808300C4202D04D466D1E5F
:1019200064191D6825601B1D241D121FECD0F8E7EB
:1019300030BC704705480022874500D9024404485E
:10194000026004488047044800470000000000206F
:1019500008ED00E041080000211A000010B5074919
:1019600079441831064C7C44163404E0081D0A689A
:10197000891888470100A142F8D110BD0800000075
:101980002800000045FFFFFF5C0300000801002065
:101990000000000071FFFFFF040000009400000041
:1019A000000000200000000080B5FEF749FFFFF7AF
:1019B00009FFFFF7E1FCFFF779F8FFF75CFCFFF7A1
:1019C00030FFFAE700F00BF8002801D0FFF7C6FF60
:1019D000002000BF00BFFFF7E7FF00F002F8012082
:1019E000704780B500F002F801BDFEE707463846B3
:1019F00000F002F8FBE7FEE780B500BF00BF024A37
:101A000011001820ABBEFBE72600020000093D00D4
:101A100000127A000024F4004086510100366E0165
:101A200000BF00BF00BF00BFFFF7CCFF00800096E3
:041A300000093D006C
:0400000500001A21BC
:00000001FF
